{
    "_format": "hh-sol-artifact-1",
    "contractName": "EthereumDIDRegistry",
    "sourceName": "contracts/EthereumDIDRegistry.sol",
    "abi": [
        {
            "inputs": [],
            "stateMutability": "nonpayable",
            "type": "constructor"
        },
        {
            "inputs": [
                {
                    "internalType": "address",
                    "name": "spender",
                    "type": "address"
                },
                {
                    "internalType": "uint256",
                    "name": "allowance",
                    "type": "uint256"
                },
                {
                    "internalType": "uint256",
                    "name": "needed",
                    "type": "uint256"
                }
            ],
            "name": "ERC20InsufficientAllowance",
            "type": "error"
        },
        {
            "inputs": [
                {
                    "internalType": "address",
                    "name": "sender",
                    "type": "address"
                },
                {
                    "internalType": "uint256",
                    "name": "balance",
                    "type": "uint256"
                },
                {
                    "internalType": "uint256",
                    "name": "needed",
                    "type": "uint256"
                }
            ],
            "name": "ERC20InsufficientBalance",
            "type": "error"
        },
        {
            "inputs": [
                {
                    "internalType": "address",
                    "name": "approver",
                    "type": "address"
                }
            ],
            "name": "ERC20InvalidApprover",
            "type": "error"
        },
        {
            "inputs": [
                {
                    "internalType": "address",
                    "name": "receiver",
                    "type": "address"
                }
            ],
            "name": "ERC20InvalidReceiver",
            "type": "error"
        },
        {
            "inputs": [
                {
                    "internalType": "address",
                    "name": "sender",
                    "type": "address"
                }
            ],
            "name": "ERC20InvalidSender",
            "type": "error"
        },
        {
            "inputs": [
                {
                    "internalType": "address",
                    "name": "spender",
                    "type": "address"
                }
            ],
            "name": "ERC20InvalidSpender",
            "type": "error"
        },
        {
            "inputs": [
                {
                    "internalType": "address",
                    "name": "owner",
                    "type": "address"
                }
            ],
            "name": "OwnableInvalidOwner",
            "type": "error"
        },
        {
            "inputs": [
                {
                    "internalType": "address",
                    "name": "account",
                    "type": "address"
                }
            ],
            "name": "OwnableUnauthorizedAccount",
            "type": "error"
        },
        {
            "anonymous": false,
            "inputs": [
                {
                    "indexed": true,
                    "internalType": "address",
                    "name": "owner",
                    "type": "address"
                },
                {
                    "indexed": true,
                    "internalType": "address",
                    "name": "spender",
                    "type": "address"
                },
                {
                    "indexed": false,
                    "internalType": "uint256",
                    "name": "value",
                    "type": "uint256"
                }
            ],
            "name": "Approval",
            "type": "event"
        },
        {
            "anonymous": false,
            "inputs": [
                {
                    "indexed": true,
                    "internalType": "bytes32",
                    "name": "orgId",
                    "type": "bytes32"
                },
                {
                    "indexed": false,
                    "internalType": "uint256",
                    "name": "amount",
                    "type": "uint256"
                },
                {
                    "indexed": true,
                    "internalType": "address",
                    "name": "admin",
                    "type": "address"
                }
            ],
            "name": "CreditsAdded",
            "type": "event"
        },
        {
            "anonymous": false,
            "inputs": [
                {
                    "indexed": true,
                    "internalType": "address",
                    "name": "identity",
                    "type": "address"
                },
                {
                    "indexed": false,
                    "internalType": "bytes32",
                    "name": "name",
                    "type": "bytes32"
                },
                {
                    "indexed": false,
                    "internalType": "bytes",
                    "name": "value",
                    "type": "bytes"
                },
                {
                    "indexed": false,
                    "internalType": "uint256",
                    "name": "validTo",
                    "type": "uint256"
                },
                {
                    "indexed": false,
                    "internalType": "uint256",
                    "name": "previousChange",
                    "type": "uint256"
                }
            ],
            "name": "DIDAttributeChanged",
            "type": "event"
        },
        {
            "anonymous": false,
            "inputs": [
                {
                    "indexed": true,
                    "internalType": "address",
                    "name": "user",
                    "type": "address"
                },
                {
                    "indexed": true,
                    "internalType": "bytes32",
                    "name": "orgId",
                    "type": "bytes32"
                },
                {
                    "indexed": false,
                    "internalType": "uint256",
                    "name": "creditsRemaining",
                    "type": "uint256"
                }
            ],
            "name": "DIDCreated",
            "type": "event"
        },
        {
            "anonymous": false,
            "inputs": [
                {
                    "indexed": true,
                    "internalType": "address",
                    "name": "identity",
                    "type": "address"
                },
                {
                    "indexed": false,
                    "internalType": "bytes32",
                    "name": "delegateType",
                    "type": "bytes32"
                },
                {
                    "indexed": false,
                    "internalType": "address",
                    "name": "delegate",
                    "type": "address"
                },
                {
                    "indexed": false,
                    "internalType": "uint256",
                    "name": "validTo",
                    "type": "uint256"
                },
                {
                    "indexed": false,
                    "internalType": "uint256",
                    "name": "previousChange",
                    "type": "uint256"
                }
            ],
            "name": "DIDDelegateChanged",
            "type": "event"
        },
        {
            "anonymous": false,
            "inputs": [
                {
                    "indexed": true,
                    "internalType": "address",
                    "name": "identity",
                    "type": "address"
                },
                {
                    "indexed": false,
                    "internalType": "string",
                    "name": "cid",
                    "type": "string"
                }
            ],
            "name": "DIDDocumentCIDUpdated",
            "type": "event"
        },
        {
            "anonymous": false,
            "inputs": [
                {
                    "indexed": true,
                    "internalType": "address",
                    "name": "identity",
                    "type": "address"
                },
                {
                    "indexed": false,
                    "internalType": "address",
                    "name": "owner",
                    "type": "address"
                },
                {
                    "indexed": false,
                    "internalType": "uint256",
                    "name": "previousChange",
                    "type": "uint256"
                }
            ],
            "name": "DIDOwnerChanged",
            "type": "event"
        },
        {
            "anonymous": false,
            "inputs": [
                {
                    "indexed": true,
                    "internalType": "bytes32",
                    "name": "orgId",
                    "type": "bytes32"
                },
                {
                    "indexed": false,
                    "internalType": "string",
                    "name": "name",
                    "type": "string"
                },
                {
                    "indexed": true,
                    "internalType": "address",
                    "name": "admin",
                    "type": "address"
                },
                {
                    "indexed": false,
                    "internalType": "uint256",
                    "name": "initialCredits",
                    "type": "uint256"
                }
            ],
            "name": "OrganizationCreated",
            "type": "event"
        },
        {
            "anonymous": false,
            "inputs": [
                {
                    "indexed": true,
                    "internalType": "address",
                    "name": "previousOwner",
                    "type": "address"
                },
                {
                    "indexed": true,
                    "internalType": "address",
                    "name": "newOwner",
                    "type": "address"
                }
            ],
            "name": "OwnershipTransferred",
            "type": "event"
        },
        {
            "anonymous": false,
            "inputs": [
                {
                    "indexed": true,
                    "internalType": "address",
                    "name": "identity",
                    "type": "address"
                },
                {
                    "indexed": false,
                    "internalType": "string",
                    "name": "cid",
                    "type": "string"
                }
            ],
            "name": "ProfileCIDUpdated",
            "type": "event"
        },
        {
            "anonymous": false,
            "inputs": [
                {
                    "indexed": true,
                    "internalType": "address",
                    "name": "from",
                    "type": "address"
                },
                {
                    "indexed": true,
                    "internalType": "address",
                    "name": "to",
                    "type": "address"
                },
                {
                    "indexed": false,
                    "internalType": "uint256",
                    "name": "value",
                    "type": "uint256"
                }
            ],
            "name": "Transfer",
            "type": "event"
        },
        {
            "anonymous": false,
            "inputs": [
                {
                    "indexed": true,
                    "internalType": "bytes32",
                    "name": "orgId",
                    "type": "bytes32"
                },
                {
                    "indexed": true,
                    "internalType": "address",
                    "name": "user",
                    "type": "address"
                }
            ],
            "name": "UserAddedToOrganization",
            "type": "event"
        },
        {
            "inputs": [],
            "name": "CREDITS_PER_TOKEN",
            "outputs": [
                {
                    "internalType": "uint256",
                    "name": "",
                    "type": "uint256"
                }
            ],
            "stateMutability": "view",
            "type": "function"
        },
        {
            "inputs": [],
            "name": "INITIAL_FREE_CREDITS",
            "outputs": [
                {
                    "internalType": "uint256",
                    "name": "",
                    "type": "uint256"
                }
            ],
            "stateMutability": "view",
            "type": "function"
        },
        {
            "inputs": [
                {
                    "internalType": "address",
                    "name": "identity",
                    "type": "address"
                },
                {
                    "internalType": "bytes32",
                    "name": "delegateType",
                    "type": "bytes32"
                },
                {
                    "internalType": "address",
                    "name": "delegate",
                    "type": "address"
                },
                {
                    "internalType": "uint256",
                    "name": "validity",
                    "type": "uint256"
                }
            ],
            "name": "addDelegate",
            "outputs": [],
            "stateMutability": "nonpayable",
            "type": "function"
        },
        {
            "inputs": [
                {
                    "internalType": "address",
                    "name": "identity",
                    "type": "address"
                },
                {
                    "internalType": "uint8",
                    "name": "sigV",
                    "type": "uint8"
                },
                {
                    "internalType": "bytes32",
                    "name": "sigR",
                    "type": "bytes32"
                },
                {
                    "internalType": "bytes32",
                    "name": "sigS",
                    "type": "bytes32"
                },
                {
                    "internalType": "bytes32",
                    "name": "delegateType",
                    "type": "bytes32"
                },
                {
                    "internalType": "address",
                    "name": "delegate",
                    "type": "address"
                },
                {
                    "internalType": "uint256",
                    "name": "validity",
                    "type": "uint256"
                }
            ],
            "name": "addDelegateSigned",
            "outputs": [],
            "stateMutability": "nonpayable",
            "type": "function"
        },
        {
            "inputs": [
                {
                    "internalType": "bytes32",
                    "name": "orgId",
                    "type": "bytes32"
                },
                {
                    "internalType": "address",
                    "name": "user",
                    "type": "address"
                }
            ],
            "name": "addUserToOrganization",
            "outputs": [],
            "stateMutability": "nonpayable",
            "type": "function"
        },
        {
            "inputs": [
                {
                    "internalType": "address",
                    "name": "owner",
                    "type": "address"
                },
                {
                    "internalType": "address",
                    "name": "spender",
                    "type": "address"
                }
            ],
            "name": "allowance",
            "outputs": [
                {
                    "internalType": "uint256",
                    "name": "",
                    "type": "uint256"
                }
            ],
            "stateMutability": "view",
            "type": "function"
        },
        {
            "inputs": [
                {
                    "internalType": "address",
                    "name": "spender",
                    "type": "address"
                },
                {
                    "internalType": "uint256",
                    "name": "value",
                    "type": "uint256"
                }
            ],
            "name": "approve",
            "outputs": [
                {
                    "internalType": "bool",
                    "name": "",
                    "type": "bool"
                }
            ],
            "stateMutability": "nonpayable",
            "type": "function"
        },
        {
            "inputs": [
                {
                    "internalType": "address",
                    "name": "account",
                    "type": "address"
                }
            ],
            "name": "balanceOf",
            "outputs": [
                {
                    "internalType": "uint256",
                    "name": "",
                    "type": "uint256"
                }
            ],
            "stateMutability": "view",
            "type": "function"
        },
        {
            "inputs": [
                {
                    "internalType": "address",
                    "name": "user",
                    "type": "address"
                }
            ],
            "name": "canUserCreateDID",
            "outputs": [
                {
                    "internalType": "bool",
                    "name": "",
                    "type": "bool"
                }
            ],
            "stateMutability": "view",
            "type": "function"
        },
        {
            "inputs": [
                {
                    "internalType": "address",
                    "name": "identity",
                    "type": "address"
                },
                {
                    "internalType": "address",
                    "name": "newOwner",
                    "type": "address"
                }
            ],
            "name": "changeOwner",
            "outputs": [],
            "stateMutability": "nonpayable",
            "type": "function"
        },
        {
            "inputs": [
                {
                    "internalType": "address",
                    "name": "identity",
                    "type": "address"
                },
                {
                    "internalType": "uint8",
                    "name": "sigV",
                    "type": "uint8"
                },
                {
                    "internalType": "bytes32",
                    "name": "sigR",
                    "type": "bytes32"
                },
                {
                    "internalType": "bytes32",
                    "name": "sigS",
                    "type": "bytes32"
                },
                {
                    "internalType": "address",
                    "name": "newOwner",
                    "type": "address"
                }
            ],
            "name": "changeOwnerSigned",
            "outputs": [],
            "stateMutability": "nonpayable",
            "type": "function"
        },
        {
            "inputs": [
                {
                    "internalType": "address",
                    "name": "",
                    "type": "address"
                }
            ],
            "name": "changed",
            "outputs": [
                {
                    "internalType": "uint256",
                    "name": "",
                    "type": "uint256"
                }
            ],
            "stateMutability": "view",
            "type": "function"
        },
        {
            "inputs": [
                {
                    "internalType": "address",
                    "name": "user",
                    "type": "address"
                }
            ],
            "name": "createDIDForUser",
            "outputs": [
                {
                    "internalType": "bool",
                    "name": "",
                    "type": "bool"
                }
            ],
            "stateMutability": "nonpayable",
            "type": "function"
        },
        {
            "inputs": [
                {
                    "internalType": "string",
                    "name": "name",
                    "type": "string"
                },
                {
                    "internalType": "address",
                    "name": "admin",
                    "type": "address"
                }
            ],
            "name": "createOrganization",
            "outputs": [
                {
                    "internalType": "bytes32",
                    "name": "",
                    "type": "bytes32"
                }
            ],
            "stateMutability": "nonpayable",
            "type": "function"
        },
        {
            "inputs": [],
            "name": "decimals",
            "outputs": [
                {
                    "internalType": "uint8",
                    "name": "",
                    "type": "uint8"
                }
            ],
            "stateMutability": "view",
            "type": "function"
        },
        {
            "inputs": [
                {
                    "internalType": "address",
                    "name": "",
                    "type": "address"
                },
                {
                    "internalType": "bytes32",
                    "name": "",
                    "type": "bytes32"
                },
                {
                    "internalType": "address",
                    "name": "",
                    "type": "address"
                }
            ],
            "name": "delegates",
            "outputs": [
                {
                    "internalType": "uint256",
                    "name": "",
                    "type": "uint256"
                }
            ],
            "stateMutability": "view",
            "type": "function"
        },
        {
            "inputs": [
                {
                    "internalType": "address",
                    "name": "identity",
                    "type": "address"
                }
            ],
            "name": "getDIDDocumentCID",
            "outputs": [
                {
                    "internalType": "string",
                    "name": "",
                    "type": "string"
                }
            ],
            "stateMutability": "view",
            "type": "function"
        },
        {
            "inputs": [
                {
                    "internalType": "uint256",
                    "name": "index",
                    "type": "uint256"
                }
            ],
            "name": "getOrganizationByIndex",
            "outputs": [
                {
                    "internalType": "bytes32",
                    "name": "",
                    "type": "bytes32"
                }
            ],
            "stateMutability": "view",
            "type": "function"
        },
        {
            "inputs": [
                {
                    "internalType": "bytes32",
                    "name": "orgId",
                    "type": "bytes32"
                }
            ],
            "name": "getOrganizationInfo",
            "outputs": [
                {
                    "internalType": "string",
                    "name": "name",
                    "type": "string"
                },
                {
                    "internalType": "address",
                    "name": "admin",
                    "type": "address"
                },
                {
                    "internalType": "uint256",
                    "name": "totalCredits",
                    "type": "uint256"
                },
                {
                    "internalType": "uint256",
                    "name": "usedCredits",
                    "type": "uint256"
                },
                {
                    "internalType": "uint256",
                    "name": "remainingCredits",
                    "type": "uint256"
                },
                {
                    "internalType": "bool",
                    "name": "isActive",
                    "type": "bool"
                },
                {
                    "internalType": "uint256",
                    "name": "memberCount",
                    "type": "uint256"
                }
            ],
            "stateMutability": "view",
            "type": "function"
        },
        {
            "inputs": [
                {
                    "internalType": "bytes32",
                    "name": "orgId",
                    "type": "bytes32"
                }
            ],
            "name": "getOrganizationMembers",
            "outputs": [
                {
                    "internalType": "address[]",
                    "name": "",
                    "type": "address[]"
                }
            ],
            "stateMutability": "view",
            "type": "function"
        },
        {
            "inputs": [
                {
                    "internalType": "address",
                    "name": "identity",
                    "type": "address"
                }
            ],
            "name": "getProfileCID",
            "outputs": [
                {
                    "internalType": "string",
                    "name": "",
                    "type": "string"
                }
            ],
            "stateMutability": "view",
            "type": "function"
        },
        {
            "inputs": [],
            "name": "getTotalOrganizations",
            "outputs": [
                {
                    "internalType": "uint256",
                    "name": "",
                    "type": "uint256"
                }
            ],
            "stateMutability": "view",
            "type": "function"
        },
        {
            "inputs": [
                {
                    "internalType": "address",
                    "name": "user",
                    "type": "address"
                }
            ],
            "name": "getUserOrganization",
            "outputs": [
                {
                    "internalType": "bytes32",
                    "name": "",
                    "type": "bytes32"
                }
            ],
            "stateMutability": "view",
            "type": "function"
        },
        {
            "inputs": [
                {
                    "internalType": "address",
                    "name": "",
                    "type": "address"
                }
            ],
            "name": "hasDID",
            "outputs": [
                {
                    "internalType": "bool",
                    "name": "",
                    "type": "bool"
                }
            ],
            "stateMutability": "view",
            "type": "function"
        },
        {
            "inputs": [
                {
                    "internalType": "address",
                    "name": "identity",
                    "type": "address"
                }
            ],
            "name": "identityOwner",
            "outputs": [
                {
                    "internalType": "address",
                    "name": "",
                    "type": "address"
                }
            ],
            "stateMutability": "view",
            "type": "function"
        },
        {
            "inputs": [
                {
                    "internalType": "address",
                    "name": "admin",
                    "type": "address"
                },
                {
                    "internalType": "uint256",
                    "name": "amount",
                    "type": "uint256"
                }
            ],
            "name": "mintTokensForOrganization",
            "outputs": [],
            "stateMutability": "nonpayable",
            "type": "function"
        },
        {
            "inputs": [],
            "name": "name",
            "outputs": [
                {
                    "internalType": "string",
                    "name": "",
                    "type": "string"
                }
            ],
            "stateMutability": "view",
            "type": "function"
        },
        {
            "inputs": [
                {
                    "internalType": "address",
                    "name": "",
                    "type": "address"
                }
            ],
            "name": "nonce",
            "outputs": [
                {
                    "internalType": "uint256",
                    "name": "",
                    "type": "uint256"
                }
            ],
            "stateMutability": "view",
            "type": "function"
        },
        {
            "inputs": [
                {
                    "internalType": "uint256",
                    "name": "",
                    "type": "uint256"
                }
            ],
            "name": "organizationIds",
            "outputs": [
                {
                    "internalType": "bytes32",
                    "name": "",
                    "type": "bytes32"
                }
            ],
            "stateMutability": "view",
            "type": "function"
        },
        {
            "inputs": [
                {
                    "internalType": "bytes32",
                    "name": "",
                    "type": "bytes32"
                }
            ],
            "name": "organizations",
            "outputs": [
                {
                    "internalType": "string",
                    "name": "name",
                    "type": "string"
                },
                {
                    "internalType": "address",
                    "name": "admin",
                    "type": "address"
                },
                {
                    "internalType": "uint256",
                    "name": "totalCredits",
                    "type": "uint256"
                },
                {
                    "internalType": "uint256",
                    "name": "usedCredits",
                    "type": "uint256"
                },
                {
                    "internalType": "bool",
                    "name": "isActive",
                    "type": "bool"
                },
                {
                    "internalType": "uint256",
                    "name": "createdAt",
                    "type": "uint256"
                }
            ],
            "stateMutability": "view",
            "type": "function"
        },
        {
            "inputs": [],
            "name": "owner",
            "outputs": [
                {
                    "internalType": "address",
                    "name": "",
                    "type": "address"
                }
            ],
            "stateMutability": "view",
            "type": "function"
        },
        {
            "inputs": [
                {
                    "internalType": "address",
                    "name": "",
                    "type": "address"
                }
            ],
            "name": "owners",
            "outputs": [
                {
                    "internalType": "address",
                    "name": "",
                    "type": "address"
                }
            ],
            "stateMutability": "view",
            "type": "function"
        },
        {
            "inputs": [
                {
                    "internalType": "bytes32",
                    "name": "orgId",
                    "type": "bytes32"
                },
                {
                    "internalType": "uint256",
                    "name": "tokenAmount",
                    "type": "uint256"
                }
            ],
            "name": "purchaseCredits",
            "outputs": [],
            "stateMutability": "nonpayable",
            "type": "function"
        },
        {
            "inputs": [
                {
                    "internalType": "bytes32",
                    "name": "orgId",
                    "type": "bytes32"
                },
                {
                    "internalType": "address",
                    "name": "user",
                    "type": "address"
                }
            ],
            "name": "removeUserFromOrganization",
            "outputs": [],
            "stateMutability": "nonpayable",
            "type": "function"
        },
        {
            "inputs": [],
            "name": "renounceOwnership",
            "outputs": [],
            "stateMutability": "nonpayable",
            "type": "function"
        },
        {
            "inputs": [
                {
                    "internalType": "address",
                    "name": "identity",
                    "type": "address"
                },
                {
                    "internalType": "bytes32",
                    "name": "name",
                    "type": "bytes32"
                },
                {
                    "internalType": "bytes",
                    "name": "value",
                    "type": "bytes"
                }
            ],
            "name": "revokeAttribute",
            "outputs": [],
            "stateMutability": "nonpayable",
            "type": "function"
        },
        {
            "inputs": [
                {
                    "internalType": "address",
                    "name": "identity",
                    "type": "address"
                },
                {
                    "internalType": "uint8",
                    "name": "sigV",
                    "type": "uint8"
                },
                {
                    "internalType": "bytes32",
                    "name": "sigR",
                    "type": "bytes32"
                },
                {
                    "internalType": "bytes32",
                    "name": "sigS",
                    "type": "bytes32"
                },
                {
                    "internalType": "bytes32",
                    "name": "name",
                    "type": "bytes32"
                },
                {
                    "internalType": "bytes",
                    "name": "value",
                    "type": "bytes"
                }
            ],
            "name": "revokeAttributeSigned",
            "outputs": [],
            "stateMutability": "nonpayable",
            "type": "function"
        },
        {
            "inputs": [
                {
                    "internalType": "address",
                    "name": "identity",
                    "type": "address"
                },
                {
                    "internalType": "bytes32",
                    "name": "delegateType",
                    "type": "bytes32"
                },
                {
                    "internalType": "address",
                    "name": "delegate",
                    "type": "address"
                }
            ],
            "name": "revokeDelegate",
            "outputs": [],
            "stateMutability": "nonpayable",
            "type": "function"
        },
        {
            "inputs": [
                {
                    "internalType": "address",
                    "name": "identity",
                    "type": "address"
                },
                {
                    "internalType": "uint8",
                    "name": "sigV",
                    "type": "uint8"
                },
                {
                    "internalType": "bytes32",
                    "name": "sigR",
                    "type": "bytes32"
                },
                {
                    "internalType": "bytes32",
                    "name": "sigS",
                    "type": "bytes32"
                },
                {
                    "internalType": "bytes32",
                    "name": "delegateType",
                    "type": "bytes32"
                },
                {
                    "internalType": "address",
                    "name": "delegate",
                    "type": "address"
                }
            ],
            "name": "revokeDelegateSigned",
            "outputs": [],
            "stateMutability": "nonpayable",
            "type": "function"
        },
        {
            "inputs": [
                {
                    "internalType": "address",
                    "name": "identity",
                    "type": "address"
                },
                {
                    "internalType": "bytes32",
                    "name": "name",
                    "type": "bytes32"
                },
                {
                    "internalType": "bytes",
                    "name": "value",
                    "type": "bytes"
                },
                {
                    "internalType": "uint256",
                    "name": "validity",
                    "type": "uint256"
                }
            ],
            "name": "setAttribute",
            "outputs": [],
            "stateMutability": "nonpayable",
            "type": "function"
        },
        {
            "inputs": [
                {
                    "internalType": "address",
                    "name": "identity",
                    "type": "address"
                },
                {
                    "internalType": "uint8",
                    "name": "sigV",
                    "type": "uint8"
                },
                {
                    "internalType": "bytes32",
                    "name": "sigR",
                    "type": "bytes32"
                },
                {
                    "internalType": "bytes32",
                    "name": "sigS",
                    "type": "bytes32"
                },
                {
                    "internalType": "bytes32",
                    "name": "name",
                    "type": "bytes32"
                },
                {
                    "internalType": "bytes",
                    "name": "value",
                    "type": "bytes"
                },
                {
                    "internalType": "uint256",
                    "name": "validity",
                    "type": "uint256"
                }
            ],
            "name": "setAttributeSigned",
            "outputs": [],
            "stateMutability": "nonpayable",
            "type": "function"
        },
        {
            "inputs": [
                {
                    "internalType": "address",
                    "name": "identity",
                    "type": "address"
                },
                {
                    "internalType": "string",
                    "name": "cid",
                    "type": "string"
                }
            ],
            "name": "setDIDDocumentCID",
            "outputs": [],
            "stateMutability": "nonpayable",
            "type": "function"
        },
        {
            "inputs": [
                {
                    "internalType": "address",
                    "name": "identity",
                    "type": "address"
                },
                {
                    "internalType": "string",
                    "name": "cid",
                    "type": "string"
                }
            ],
            "name": "setProfileCID",
            "outputs": [],
            "stateMutability": "nonpayable",
            "type": "function"
        },
        {
            "inputs": [],
            "name": "symbol",
            "outputs": [
                {
                    "internalType": "string",
                    "name": "",
                    "type": "string"
                }
            ],
            "stateMutability": "view",
            "type": "function"
        },
        {
            "inputs": [],
            "name": "totalSupply",
            "outputs": [
                {
                    "internalType": "uint256",
                    "name": "",
                    "type": "uint256"
                }
            ],
            "stateMutability": "view",
            "type": "function"
        },
        {
            "inputs": [
                {
                    "internalType": "address",
                    "name": "to",
                    "type": "address"
                },
                {
                    "internalType": "uint256",
                    "name": "value",
                    "type": "uint256"
                }
            ],
            "name": "transfer",
            "outputs": [
                {
                    "internalType": "bool",
                    "name": "",
                    "type": "bool"
                }
            ],
            "stateMutability": "nonpayable",
            "type": "function"
        },
        {
            "inputs": [
                {
                    "internalType": "address",
                    "name": "from",
                    "type": "address"
                },
                {
                    "internalType": "address",
                    "name": "to",
                    "type": "address"
                },
                {
                    "internalType": "uint256",
                    "name": "value",
                    "type": "uint256"
                }
            ],
            "name": "transferFrom",
            "outputs": [
                {
                    "internalType": "bool",
                    "name": "",
                    "type": "bool"
                }
            ],
            "stateMutability": "nonpayable",
            "type": "function"
        },
        {
            "inputs": [
                {
                    "internalType": "address",
                    "name": "newOwner",
                    "type": "address"
                }
            ],
            "name": "transferOwnership",
            "outputs": [],
            "stateMutability": "nonpayable",
            "type": "function"
        },
        {
            "inputs": [
                {
                    "internalType": "address",
                    "name": "",
                    "type": "address"
                }
            ],
            "name": "userToOrganization",
            "outputs": [
                {
                    "internalType": "bytes32",
                    "name": "",
                    "type": "bytes32"
                }
            ],
            "stateMutability": "view",
            "type": "function"
        },
        {
            "inputs": [
                {
                    "internalType": "address",
                    "name": "identity",
                    "type": "address"
                },
                {
                    "internalType": "bytes32",
                    "name": "delegateType",
                    "type": "bytes32"
                },
                {
                    "internalType": "address",
                    "name": "delegate",
                    "type": "address"
                }
            ],
            "name": "validDelegate",
            "outputs": [
                {
                    "internalType": "bool",
                    "name": "",
                    "type": "bool"
                }
            ],
            "stateMutability": "view",
            "type": "function"
        }
    ],
    "bytecode": "0x608060405234801561001057600080fd5b50336040518060400160405280600c81526020017f41425941444944546f6b656e00000000000000000000000000000000000000008152506040518060400160405280600781526020017f4142594144494400000000000000000000000000000000000000000000000000815250816003908161008d919061043d565b50806004908161009d919061043d565b505050600073ffffffffffffffffffffffffffffffffffffffff168173ffffffffffffffffffffffffffffffffffffffff16036101125760006040517f1e4fbdf70000000000000000000000000000000000000000000000000000000081526004016101099190610550565b60405180910390fd5b6101218161012760201b60201c565b5061056b565b6000600560009054906101000a900473ffffffffffffffffffffffffffffffffffffffff16905081600560006101000a81548173ffffffffffffffffffffffffffffffffffffffff021916908373ffffffffffffffffffffffffffffffffffffffff1602179055508173ffffffffffffffffffffffffffffffffffffffff168173ffffffffffffffffffffffffffffffffffffffff167f8be0079c531659141344cd1fd0a4f28419497f9722a3daafe3b4186f6b6457e060405160405180910390a35050565b600081519050919050565b7f4e487b7100000000000000000000000000000000000000000000000000000000600052604160045260246000fd5b7f4e487b7100000000000000000000000000000000000000000000000000000000600052602260045260246000fd5b6000600282049050600182168061026e57607f821691505b60208210810361028157610280610227565b5b50919050565b60008190508160005260206000209050919050565b60006020601f8301049050919050565b600082821b905092915050565b6000600883026102e97fffffffffffffffffffffffffffffffffffffffffffffffffffffffffffffffff826102ac565b6102f386836102ac565b95508019841693508086168417925050509392505050565b6000819050919050565b6000819050919050565b600061033a6103356103308461030b565b610315565b61030b565b9050919050565b6000819050919050565b6103548361031f565b61036861036082610341565b8484546102b9565b825550505050565b600090565b61037d610370565b61038881848461034b565b505050565b5b818110156103ac576103a1600082610375565b60018101905061038e565b5050565b601f8211156103f1576103c281610287565b6103cb8461029c565b810160208510156103da578190505b6103ee6103e68561029c565b83018261038d565b50505b505050565b600082821c905092915050565b6000610414600019846008026103f6565b1980831691505092915050565b600061042d8383610403565b9150826002028217905092915050565b610446826101ed565b67ffffffffffffffff81111561045f5761045e6101f8565b5b6104698254610256565b6104748282856103b0565b600060209050601f8311600181146104a75760008415610495578287015190505b61049f8582610421565b865550610507565b601f1984166104b586610287565b60005b828110156104dd578489015182556001820191506020850194506020810190506104b8565b868310156104fa57848901516104f6601f891682610403565b8355505b6001600288020188555050505b505050505050565b600073ffffffffffffffffffffffffffffffffffffffff82169050919050565b600061053a8261050f565b9050919050565b61054a8161052f565b82525050565b60006020820190506105656000830184610541565b92915050565b615d8e8061057a6000396000f3fe608060405234801561001057600080fd5b50600436106102d55760003560e01c80637ad4b0a411610182578063ba51b14e116100e9578063e476af5c116100a2578063f7d8ddf51161007c578063f7d8ddf51461099b578063f96d0f9f146109b7578063fb5b0ceb146109e7578063fbef117514610a1d576102d5565b8063e476af5c14610947578063f00d4b5d14610963578063f2fde38b1461097f576102d5565b8063ba51b14e14610836578063c1f8218a1461086b578063d0f4b30a1461089b578063dd62ed3e146108cb578063de8b05be146108fb578063e3095e451461092b576102d5565b806395d89b411161013b57806395d89b41146107625780639c2c1b2b14610780578063a1fa6f521461079c578063a7068d66146107ba578063a9059cbb146107d6578063b0503f4114610806576102d5565b80637ad4b0a4146106a457806380b29f7c146106c05780638733d4e8146106dc57806388c1b44b1461070c5780638da5cb5b146107285780639307268414610746576102d5565b8063240af79b1161024157806350b33f80116101fa57806370a08231116101d457806370a082311461061e57806370ae92d21461064e57806370c1cc521461067e578063715018a61461069a576102d5565b806350b33f801461058e578063622b2a3c146105be57806369cbf44f146105ee576102d5565b8063240af79b146104a8578063240cf1fa146104d85780632a003e71146104f4578063313ce5671461052457806335118de21461054257806346a59e5f14610572576102d5565b80630f162db9116102935780630f162db9146103c2578063123b5e98146103f257806318160ddd1461040e57806318e92e821461042c57806321d4217f1461044857806323b872dd14610478576102d5565b8062c023da146102da578063019fd52f146102f6578063022914a71461031457806306fdde0314610344578063095ea7b3146103625780630d44625b14610392575b600080fd5b6102f460048036038101906102ef9190613f0f565b610a3b565b005b6102fe610a4c565b60405161030b9190613f97565b60405180910390f35b61032e60048036038101906103299190613fb2565b610a51565b60405161033b9190613fee565b60405180910390f35b61034c610a84565b6040516103599190614088565b60405180910390f35b61037c600480360381019061037791906140d6565b610b16565b6040516103899190614131565b60405180910390f35b6103ac60048036038101906103a7919061414c565b610b39565b6040516103b99190613f97565b60405180910390f35b6103dc60048036038101906103d79190613fb2565b610b6b565b6040516103e991906141ae565b60405180910390f35b61040c60048036038101906104079190614202565b610b83565b005b610416610c2e565b6040516104239190613f97565b60405180910390f35b610446600480360381019061044191906142c0565b610c38565b005b610462600480360381019061045d9190614300565b610fa9565b60405161046f91906141ae565b60405180910390f35b610492600480360381019061048d919061432d565b611018565b60405161049f9190614131565b60405180910390f35b6104c260048036038101906104bd9190613fb2565b611047565b6040516104cf9190614131565b60405180910390f35b6104f260048036038101906104ed9190614380565b611142565b005b61050e60048036038101906105099190613fb2565b6111e5565b60405161051b91906141ae565b60405180910390f35b61052c61122e565b604051610539919061440a565b60405180910390f35b61055c60048036038101906105579190613fb2565b611237565b6040516105699190614088565b60405180910390f35b61058c600480360381019061058791906144c6565b611308565b005b6105a860048036038101906105a39190614300565b611421565b6040516105b591906141ae565b60405180910390f35b6105d860048036038101906105d3919061414c565b611445565b6040516105e59190614131565b60405180910390f35b61060860048036038101906106039190614522565b61150b565b60405161061591906141ae565b60405180910390f35b61063860048036038101906106339190613fb2565b6117d3565b6040516106459190613f97565b60405180910390f35b61066860048036038101906106639190613fb2565b61181b565b6040516106759190613f97565b60405180910390f35b610698600480360381019061069391906142c0565b611833565b005b6106a2611ac3565b005b6106be60048036038101906106b9919061457e565b611ad7565b005b6106da60048036038101906106d5919061414c565b611aea565b005b6106f660048036038101906106f19190613fb2565b611afb565b6040516107039190613fee565b60405180910390f35b61072660048036038101906107219190614601565b611ba7565b005b610730611d97565b60405161073d9190613fee565b60405180910390f35b610760600480360381019061075b9190614641565b611dc1565b005b61076a611e68565b6040516107779190614088565b60405180910390f35b61079a600480360381019061079591906146ce565b611efa565b005b6107a4611fa5565b6040516107b19190613f97565b60405180910390f35b6107d460048036038101906107cf9190614770565b611fb2565b005b6107f060048036038101906107eb91906140d6565b611fc5565b6040516107fd9190614131565b60405180910390f35b610820600480360381019061081b9190613fb2565b611fe8565b60405161082d9190614131565b60405180910390f35b610850600480360381019061084b91906147d7565b612292565b60405161086296959493929190614804565b60405180910390f35b610885600480360381019061088091906147d7565b612383565b604051610892919061492a565b60405180910390f35b6108b560048036038101906108b09190613fb2565b6124ce565b6040516108c29190614131565b60405180910390f35b6108e560048036038101906108e0919061494c565b6124ee565b6040516108f29190613f97565b60405180910390f35b61091560048036038101906109109190613fb2565b612575565b6040516109229190614088565b60405180910390f35b610945600480360381019061094091906144c6565b612646565b005b610961600480360381019061095c919061498c565b61275f565b005b61097d6004803603810190610978919061494c565b612806565b005b61099960048036038101906109949190613fb2565b612815565b005b6109b560048036038101906109b091906140d6565b61289b565b005b6109d160048036038101906109cc9190613fb2565b6128b1565b6040516109de9190613f97565b60405180910390f35b610a0160048036038101906109fc91906147d7565b6128c9565b604051610a149796959493929190614a35565b60405180910390f35b610a25612a99565b604051610a329190613f97565b60405180910390f35b610a4783338484612a9e565b505050565b600181565b60066020528060005260406000206000915054906101000a900473ffffffffffffffffffffffffffffffffffffffff1681565b606060038054610a9390614ada565b80601f0160208091040260200160405190810160405280929190818152602001828054610abf90614ada565b8015610b0c5780601f10610ae157610100808354040283529160200191610b0c565b820191906000526020600020905b815481529060010190602001808311610aef57829003601f168201915b5050505050905090565b600080610b21612bf6565b9050610b2e818585612bfe565b600191505092915050565b600760205282600052604060002060205281600052604060002060205280600052604060002060009250925050505481565b600d6020528060005260406000206000915090505481565b6000601960f81b600060f81b3060096000610b9d8d611afb565b73ffffffffffffffffffffffffffffffffffffffff1673ffffffffffffffffffffffffffffffffffffffff168152602001908152602001600020548b888888604051602001610bf3989796959493929190614ce7565b604051602081830303815290604052805190602001209050610c2488610c1c8a8a8a8a87612c10565b868686612d3c565b5050505050505050565b6000600254905090565b813373ffffffffffffffffffffffffffffffffffffffff16600c600083815260200190815260200160002060010160009054906101000a900473ffffffffffffffffffffffffffffffffffffffff1673ffffffffffffffffffffffffffffffffffffffff1614610cdd576040517f08c379a0000000000000000000000000000000000000000000000000000000008152600401610cd490614dcc565b60405180910390fd5b600c600082815260200190815260200160002060040160009054906101000a900460ff16610d40576040517f08c379a0000000000000000000000000000000000000000000000000000000008152600401610d3790614e38565b60405180910390fd5b82600d60008473ffffffffffffffffffffffffffffffffffffffff1673ffffffffffffffffffffffffffffffffffffffff1681526020019081526020016000205414610dc1576040517f08c379a0000000000000000000000000000000000000000000000000000000008152600401610db890614ea4565b60405180910390fd5b6000801b600d60008473ffffffffffffffffffffffffffffffffffffffff1673ffffffffffffffffffffffffffffffffffffffff168152602001908152602001600020819055506000600c6000858152602001908152602001600020600601905060005b8180549050811015610fa2578373ffffffffffffffffffffffffffffffffffffffff16828281548110610e5b57610e5a614ec4565b5b9060005260206000200160009054906101000a900473ffffffffffffffffffffffffffffffffffffffff1673ffffffffffffffffffffffffffffffffffffffff1603610f95578160018380549050610eb39190614f22565b81548110610ec457610ec3614ec4565b5b9060005260206000200160009054906101000a900473ffffffffffffffffffffffffffffffffffffffff16828281548110610f0257610f01614ec4565b5b9060005260206000200160006101000a81548173ffffffffffffffffffffffffffffffffffffffff021916908373ffffffffffffffffffffffffffffffffffffffff16021790555081805480610f5b57610f5a614f56565b5b6001900381819060005260206000200160006101000a81549073ffffffffffffffffffffffffffffffffffffffff02191690559055610fa2565b8080600101915050610e25565b5050505050565b6000600f805490508210610ff2576040517f08c379a0000000000000000000000000000000000000000000000000000000008152600401610fe990614fd1565b60405180910390fd5b600f828154811061100657611005614ec4565b5b90600052602060002001549050919050565b600080611023612bf6565b9050611030858285612e9f565b61103b858585612f34565b60019150509392505050565b600080600d60008473ffffffffffffffffffffffffffffffffffffffff1673ffffffffffffffffffffffffffffffffffffffff1681526020019081526020016000205490506000801b81036110a057600091505061113d565b600e60008473ffffffffffffffffffffffffffffffffffffffff1673ffffffffffffffffffffffffffffffffffffffff16815260200190815260200160002060009054906101000a900460ff16156110fc57600091505061113d565b6000600c600083815260200190815260200160002090508060040160009054906101000a900460ff168015611138575080600301548160020154115b925050505b919050565b6000601960f81b600060f81b306009600061115c8b611afb565b73ffffffffffffffffffffffffffffffffffffffff1673ffffffffffffffffffffffffffffffffffffffff1681526020019081526020016000205489866040516020016111ae9695949392919061503d565b6040516020818303038152906040528051906020012090506111dd866111d78888888887612c10565b84613028565b505050505050565b6000600d60008373ffffffffffffffffffffffffffffffffffffffff1673ffffffffffffffffffffffffffffffffffffffff168152602001908152602001600020549050919050565b60006012905090565b6060600b60008373ffffffffffffffffffffffffffffffffffffffff1673ffffffffffffffffffffffffffffffffffffffff168152602001908152602001600020805461128390614ada565b80601f01602080910402602001604051908101604052809291908181526020018280546112af90614ada565b80156112fc5780601f106112d1576101008083540402835291602001916112fc565b820191906000526020600020905b8154815290600101906020018083116112df57829003601f168201915b50505050509050919050565b813361131382611afb565b73ffffffffffffffffffffffffffffffffffffffff168173ffffffffffffffffffffffffffffffffffffffff1614611380576040517f08c379a000000000000000000000000000000000000000000000000000000000815260040161137790615104565b60405180910390fd5b82600a60008673ffffffffffffffffffffffffffffffffffffffff1673ffffffffffffffffffffffffffffffffffffffff16815260200190815260200160002090816113cc91906152c6565b508373ffffffffffffffffffffffffffffffffffffffff167fdfb356fd3336224c49cebfc4c41e3dde8125aad9a1afab6a91b898e449f41c70846040516114139190614088565b60405180910390a250505050565b600f818154811061143157600080fd5b906000526020600020016000915090505481565b600080600760008673ffffffffffffffffffffffffffffffffffffffff1673ffffffffffffffffffffffffffffffffffffffff16815260200190815260200160002060008560405160200161149a91906141ae565b60405160208183030381529060405280519060200120815260200190815260200160002060008473ffffffffffffffffffffffffffffffffffffffff1673ffffffffffffffffffffffffffffffffffffffff1681526020019081526020016000205490504281119150509392505050565b60006115156131f8565b600083834260405160200161152c939291906153c9565b604051602081830303815290604052805190602001209050600073ffffffffffffffffffffffffffffffffffffffff16600c600083815260200190815260200160002060010160009054906101000a900473ffffffffffffffffffffffffffffffffffffffff1673ffffffffffffffffffffffffffffffffffffffff16146115e9576040517f08c379a00000000000000000000000000000000000000000000000000000000081526004016115e09061544e565b60405180910390fd5b6040518060e001604052808581526020018473ffffffffffffffffffffffffffffffffffffffff1681526020016064815260200160008152602001600115158152602001428152602001600067ffffffffffffffff81111561164e5761164d613de4565b5b60405190808252806020026020018201604052801561167c5781602001602082028036833780820191505090505b50815250600c600083815260200190815260200160002060008201518160000190816116a891906152c6565b5060208201518160010160006101000a81548173ffffffffffffffffffffffffffffffffffffffff021916908373ffffffffffffffffffffffffffffffffffffffff160217905550604082015181600201556060820151816003015560808201518160040160006101000a81548160ff02191690831515021790555060a0820151816005015560c082015181600601908051906020019061174a929190613c7a565b50905050600f8190806001815401808255809150506001900390600052602060002001600090919091909150558273ffffffffffffffffffffffffffffffffffffffff16817f2a958f59d3b0290f8dea7ac522389a7a1c1805c48d033d76fa6d2dadc4bea05a8660646040516117c192919061546e565b60405180910390a38091505092915050565b60008060008373ffffffffffffffffffffffffffffffffffffffff1673ffffffffffffffffffffffffffffffffffffffff168152602001908152602001600020549050919050565b60096020528060005260406000206000915090505481565b813373ffffffffffffffffffffffffffffffffffffffff16600c600083815260200190815260200160002060010160009054906101000a900473ffffffffffffffffffffffffffffffffffffffff1673ffffffffffffffffffffffffffffffffffffffff16146118d8576040517f08c379a00000000000000000000000000000000000000000000000000000000081526004016118cf90614dcc565b60405180910390fd5b600c600082815260200190815260200160002060040160009054906101000a900460ff1661193b576040517f08c379a000000000000000000000000000000000000000000000000000000000815260040161193290614e38565b60405180910390fd5b6000801b600d60008473ffffffffffffffffffffffffffffffffffffffff1673ffffffffffffffffffffffffffffffffffffffff16815260200190815260200160002054146119bf576040517f08c379a00000000000000000000000000000000000000000000000000000000081526004016119b6906154ea565b60405180910390fd5b82600d60008473ffffffffffffffffffffffffffffffffffffffff1673ffffffffffffffffffffffffffffffffffffffff16815260200190815260200160002081905550600c6000848152602001908152602001600020600601829080600181540180825580915050600190039060005260206000200160009091909190916101000a81548173ffffffffffffffffffffffffffffffffffffffff021916908373ffffffffffffffffffffffffffffffffffffffff1602179055508173ffffffffffffffffffffffffffffffffffffffff16837fa929b8e66d46b91455caf85d88a6669a544d6304a1cc7334cacd2d1de9aaeadf60405160405180910390a3505050565b611acb6131f8565b611ad5600061327f565b565b611ae48433858585612d3c565b50505050565b611af683338484613345565b505050565b600080600660008473ffffffffffffffffffffffffffffffffffffffff1673ffffffffffffffffffffffffffffffffffffffff16815260200190815260200160002060009054906101000a900473ffffffffffffffffffffffffffffffffffffffff169050600073ffffffffffffffffffffffffffffffffffffffff168173ffffffffffffffffffffffffffffffffffffffff1614611b9d5780915050611ba2565b829150505b919050565b813373ffffffffffffffffffffffffffffffffffffffff16600c600083815260200190815260200160002060010160009054906101000a900473ffffffffffffffffffffffffffffffffffffffff1673ffffffffffffffffffffffffffffffffffffffff1614611c4c576040517f08c379a0000000000000000000000000000000000000000000000000000000008152600401611c4390614dcc565b60405180910390fd5b600c600082815260200190815260200160002060040160009054906101000a900460ff16611caf576040517f08c379a0000000000000000000000000000000000000000000000000000000008152600401611ca690614e38565b60405180910390fd5b81611cb9336117d3565b1015611cfa576040517f08c379a0000000000000000000000000000000000000000000000000000000008152600401611cf190615556565b60405180910390fd5b611d043383613554565b6000600183611d139190615576565b905080600c60008681526020019081526020016000206002016000828254611d3b91906155b8565b925050819055503373ffffffffffffffffffffffffffffffffffffffff16847fbfe4a6b6840ccdb709ca8290f08818f01b5787ae7d43bc96b632e7a47d9b6a1a83604051611d899190613f97565b60405180910390a350505050565b6000600560009054906101000a900473ffffffffffffffffffffffffffffffffffffffff16905090565b6000601960f81b600060f81b3060096000611ddb8c611afb565b73ffffffffffffffffffffffffffffffffffffffff1673ffffffffffffffffffffffffffffffffffffffff168152602001908152602001600020548a8787604051602001611e2f9796959493929190615638565b604051602081830303815290604052805190602001209050611e5f87611e588989898987612c10565b8585613345565b50505050505050565b606060048054611e7790614ada565b80601f0160208091040260200160405190810160405280929190818152602001828054611ea390614ada565b8015611ef05780601f10611ec557610100808354040283529160200191611ef0565b820191906000526020600020905b815481529060010190602001808311611ed357829003601f168201915b5050505050905090565b6000601960f81b600060f81b3060096000611f148d611afb565b73ffffffffffffffffffffffffffffffffffffffff1673ffffffffffffffffffffffffffffffffffffffff168152602001908152602001600020548b888888604051602001611f6a989796959493929190615710565b604051602081830303815290604052805190602001209050611f9b88611f938a8a8a8a87612c10565b8686866135d6565b5050505050505050565b6000600f80549050905090565b611fbf84338585856135d6565b50505050565b600080611fd0612bf6565b9050611fdd818585612f34565b600191505092915050565b600080600d60008473ffffffffffffffffffffffffffffffffffffffff1673ffffffffffffffffffffffffffffffffffffffff1681526020019081526020016000205490506000801b8103612072576040517f08c379a0000000000000000000000000000000000000000000000000000000008152600401612069906157f9565b60405180910390fd5b600e60008473ffffffffffffffffffffffffffffffffffffffff1673ffffffffffffffffffffffffffffffffffffffff16815260200190815260200160002060009054906101000a900460ff16156120ff576040517f08c379a00000000000000000000000000000000000000000000000000000000081526004016120f690615865565b60405180910390fd5b6000600c600083815260200190815260200160002090508060040160009054906101000a900460ff16612167576040517f08c379a000000000000000000000000000000000000000000000000000000000815260040161215e906158d1565b60405180910390fd5b80600301548160020154116121b1576040517f08c379a00000000000000000000000000000000000000000000000000000000081526004016121a89061593d565b60405180910390fd5b60018160030160008282546121c691906155b8565b925050819055506001600e60008673ffffffffffffffffffffffffffffffffffffffff1673ffffffffffffffffffffffffffffffffffffffff16815260200190815260200160002060006101000a81548160ff021916908315150217905550818473ffffffffffffffffffffffffffffffffffffffff167f6446facd022fe06a503de5f2908e123c908732795969775fc9b070e2607d5b06836003015484600201546122729190614f22565b60405161227f9190613f97565b60405180910390a3600192505050919050565b600c6020528060005260406000206000915090508060000180546122b590614ada565b80601f01602080910402602001604051908101604052809291908181526020018280546122e190614ada565b801561232e5780601f106123035761010080835404028352916020019161232e565b820191906000526020600020905b81548152906001019060200180831161231157829003601f168201915b5050505050908060010160009054906101000a900473ffffffffffffffffffffffffffffffffffffffff16908060020154908060030154908060040160009054906101000a900460ff16908060050154905086565b606081600073ffffffffffffffffffffffffffffffffffffffff16600c600083815260200190815260200160002060010160009054906101000a900473ffffffffffffffffffffffffffffffffffffffff1673ffffffffffffffffffffffffffffffffffffffff160361242b576040517f08c379a0000000000000000000000000000000000000000000000000000000008152600401612422906159a9565b60405180910390fd5b600c60008481526020019081526020016000206006018054806020026020016040519081016040528092919081815260200182805480156124c157602002820191906000526020600020905b8160009054906101000a900473ffffffffffffffffffffffffffffffffffffffff1673ffffffffffffffffffffffffffffffffffffffff1681526020019060010190808311612477575b5050505050915050919050565b600e6020528060005260406000206000915054906101000a900460ff1681565b6000600160008473ffffffffffffffffffffffffffffffffffffffff1673ffffffffffffffffffffffffffffffffffffffff16815260200190815260200160002060008373ffffffffffffffffffffffffffffffffffffffff1673ffffffffffffffffffffffffffffffffffffffff16815260200190815260200160002054905092915050565b6060600a60008373ffffffffffffffffffffffffffffffffffffffff1673ffffffffffffffffffffffffffffffffffffffff16815260200190815260200160002080546125c190614ada565b80601f01602080910402602001604051908101604052809291908181526020018280546125ed90614ada565b801561263a5780601f1061260f5761010080835404028352916020019161263a565b820191906000526020600020905b81548152906001019060200180831161261d57829003601f168201915b50505050509050919050565b813361265182611afb565b73ffffffffffffffffffffffffffffffffffffffff168173ffffffffffffffffffffffffffffffffffffffff16146126be576040517f08c379a00000000000000000000000000000000000000000000000000000000081526004016126b590615104565b60405180910390fd5b82600b60008673ffffffffffffffffffffffffffffffffffffffff1673ffffffffffffffffffffffffffffffffffffffff168152602001908152602001600020908161270a91906152c6565b508373ffffffffffffffffffffffffffffffffffffffff167f29ee3d96f0a07374c7d8a187b1d3b3c50acd35a617c7d387cafac1e0836ddd57846040516127519190614088565b60405180910390a250505050565b6000601960f81b600060f81b30600960006127798c611afb565b73ffffffffffffffffffffffffffffffffffffffff1673ffffffffffffffffffffffffffffffffffffffff168152602001908152602001600020548a87876040516020016127cd9796959493929190615a15565b6040516020818303038152906040528051906020012090506127fd876127f68989898987612c10565b8585612a9e565b50505050505050565b612811823383613028565b5050565b61281d6131f8565b600073ffffffffffffffffffffffffffffffffffffffff168173ffffffffffffffffffffffffffffffffffffffff160361288f5760006040517f1e4fbdf70000000000000000000000000000000000000000000000000000000081526004016128869190613fee565b60405180910390fd5b6128988161327f565b50565b6128a36131f8565b6128ad82826137fc565b5050565b60086020528060005260406000206000915090505481565b606060008060008060008087600073ffffffffffffffffffffffffffffffffffffffff16600c600083815260200190815260200160002060010160009054906101000a900473ffffffffffffffffffffffffffffffffffffffff1673ffffffffffffffffffffffffffffffffffffffff160361297a576040517f08c379a0000000000000000000000000000000000000000000000000000000008152600401612971906159a9565b60405180910390fd5b6000600c60008b81526020019081526020016000209050806000018160010160009054906101000a900473ffffffffffffffffffffffffffffffffffffffff1682600201548360030154846003015485600201546129d89190614f22565b8560040160009054906101000a900460ff1686600601805490508680546129fe90614ada565b80601f0160208091040260200160405190810160405280929190818152602001828054612a2a90614ada565b8015612a775780601f10612a4c57610100808354040283529160200191612a77565b820191906000526020600020905b815481529060010190602001808311612a5a57829003601f168201915b5050505050965098509850985098509850985098505050919395979092949650565b606481565b8383612aa982611afb565b73ffffffffffffffffffffffffffffffffffffffff168173ffffffffffffffffffffffffffffffffffffffff1614612b16576040517f08c379a0000000000000000000000000000000000000000000000000000000008152600401612b0d90615104565b60405180910390fd5b8573ffffffffffffffffffffffffffffffffffffffff167f18ab6b2ae3d64306c00ce663125f2bd680e441a098de1635bd7ad8b0d44965e485856000600860008c73ffffffffffffffffffffffffffffffffffffffff1673ffffffffffffffffffffffffffffffffffffffff16815260200190815260200160002054604051612ba29493929190615b22565b60405180910390a243600860008873ffffffffffffffffffffffffffffffffffffffff1673ffffffffffffffffffffffffffffffffffffffff16815260200190815260200160002081905550505050505050565b600033905090565b612c0b838383600161387e565b505050565b60008060018387878760405160008152602001604052604051612c369493929190615b6e565b6020604051602081039080840390855afa158015612c58573d6000803e3d6000fd5b505050602060405103519050612c6d87611afb565b73ffffffffffffffffffffffffffffffffffffffff168173ffffffffffffffffffffffffffffffffffffffff1614612cda576040517f08c379a0000000000000000000000000000000000000000000000000000000008152600401612cd190615bff565b60405180910390fd5b600960008273ffffffffffffffffffffffffffffffffffffffff1673ffffffffffffffffffffffffffffffffffffffff1681526020019081526020016000206000815480929190612d2a90615c1f565b91905055508091505095945050505050565b8484612d4782611afb565b73ffffffffffffffffffffffffffffffffffffffff168173ffffffffffffffffffffffffffffffffffffffff1614612db4576040517f08c379a0000000000000000000000000000000000000000000000000000000008152600401612dab90615104565b60405180910390fd5b8673ffffffffffffffffffffffffffffffffffffffff167f18ab6b2ae3d64306c00ce663125f2bd680e441a098de1635bd7ad8b0d44965e486868642612dfa91906155b8565b600860008d73ffffffffffffffffffffffffffffffffffffffff1673ffffffffffffffffffffffffffffffffffffffff16815260200190815260200160002054604051612e4a9493929190615c67565b60405180910390a243600860008973ffffffffffffffffffffffffffffffffffffffff1673ffffffffffffffffffffffffffffffffffffffff1681526020019081526020016000208190555050505050505050565b6000612eab84846124ee565b90507fffffffffffffffffffffffffffffffffffffffffffffffffffffffffffffffff811015612f2e5781811015612f1e578281836040517ffb8f41b2000000000000000000000000000000000000000000000000000000008152600401612f1593929190615cb3565b60405180910390fd5b612f2d8484848403600061387e565b5b50505050565b600073ffffffffffffffffffffffffffffffffffffffff168373ffffffffffffffffffffffffffffffffffffffff1603612fa65760006040517f96c6fd1e000000000000000000000000000000000000000000000000000000008152600401612f9d9190613fee565b60405180910390fd5b600073ffffffffffffffffffffffffffffffffffffffff168273ffffffffffffffffffffffffffffffffffffffff16036130185760006040517fec442f0500000000000000000000000000000000000000000000000000000000815260040161300f9190613fee565b60405180910390fd5b613023838383613a55565b505050565b828261303382611afb565b73ffffffffffffffffffffffffffffffffffffffff168173ffffffffffffffffffffffffffffffffffffffff16146130a0576040517f08c379a000000000000000000000000000000000000000000000000000000000815260040161309790615104565b60405180910390fd5b82600660008773ffffffffffffffffffffffffffffffffffffffff1673ffffffffffffffffffffffffffffffffffffffff16815260200190815260200160002060006101000a81548173ffffffffffffffffffffffffffffffffffffffff021916908373ffffffffffffffffffffffffffffffffffffffff1602179055508473ffffffffffffffffffffffffffffffffffffffff167f38a5a6e68f30ed1ab45860a4afb34bcb2fc00f22ca462d249b8a8d40cda6f7a384600860008973ffffffffffffffffffffffffffffffffffffffff1673ffffffffffffffffffffffffffffffffffffffff168152602001908152602001600020546040516131a5929190615cea565b60405180910390a243600860008773ffffffffffffffffffffffffffffffffffffffff1673ffffffffffffffffffffffffffffffffffffffff168152602001908152602001600020819055505050505050565b613200612bf6565b73ffffffffffffffffffffffffffffffffffffffff1661321e611d97565b73ffffffffffffffffffffffffffffffffffffffff161461327d57613241612bf6565b6040517f118cdaa70000000000000000000000000000000000000000000000000000000081526004016132749190613fee565b60405180910390fd5b565b6000600560009054906101000a900473ffffffffffffffffffffffffffffffffffffffff16905081600560006101000a81548173ffffffffffffffffffffffffffffffffffffffff021916908373ffffffffffffffffffffffffffffffffffffffff1602179055508173ffffffffffffffffffffffffffffffffffffffff168173ffffffffffffffffffffffffffffffffffffffff167f8be0079c531659141344cd1fd0a4f28419497f9722a3daafe3b4186f6b6457e060405160405180910390a35050565b838361335082611afb565b73ffffffffffffffffffffffffffffffffffffffff168173ffffffffffffffffffffffffffffffffffffffff16146133bd576040517f08c379a00000000000000000000000000000000000000000000000000000000081526004016133b490615104565b60405180910390fd5b42600760008873ffffffffffffffffffffffffffffffffffffffff1673ffffffffffffffffffffffffffffffffffffffff16815260200190815260200160002060008660405160200161341091906141ae565b60405160208183030381529060405280519060200120815260200190815260200160002060008573ffffffffffffffffffffffffffffffffffffffff1673ffffffffffffffffffffffffffffffffffffffff168152602001908152602001600020819055508573ffffffffffffffffffffffffffffffffffffffff167f5a5084339536bcab65f20799fcc58724588145ca054bd2be626174b27ba156f7858542600860008c73ffffffffffffffffffffffffffffffffffffffff1673ffffffffffffffffffffffffffffffffffffffff168152602001908152602001600020546040516135009493929190615d13565b60405180910390a243600860008873ffffffffffffffffffffffffffffffffffffffff1673ffffffffffffffffffffffffffffffffffffffff16815260200190815260200160002081905550505050505050565b600073ffffffffffffffffffffffffffffffffffffffff168273ffffffffffffffffffffffffffffffffffffffff16036135c65760006040517f96c6fd1e0000000000000000000000000000000000000000000000000000000081526004016135bd9190613fee565b60405180910390fd5b6135d282600083613a55565b5050565b84846135e182611afb565b73ffffffffffffffffffffffffffffffffffffffff168173ffffffffffffffffffffffffffffffffffffffff161461364e576040517f08c379a000000000000000000000000000000000000000000000000000000000815260040161364590615104565b60405180910390fd5b824261365a91906155b8565b600760008973ffffffffffffffffffffffffffffffffffffffff1673ffffffffffffffffffffffffffffffffffffffff1681526020019081526020016000206000876040516020016136ac91906141ae565b60405160208183030381529060405280519060200120815260200190815260200160002060008673ffffffffffffffffffffffffffffffffffffffff1673ffffffffffffffffffffffffffffffffffffffff168152602001908152602001600020819055508673ffffffffffffffffffffffffffffffffffffffff167f5a5084339536bcab65f20799fcc58724588145ca054bd2be626174b27ba156f78686864261375791906155b8565b600860008d73ffffffffffffffffffffffffffffffffffffffff1673ffffffffffffffffffffffffffffffffffffffff168152602001908152602001600020546040516137a79493929190615d13565b60405180910390a243600860008973ffffffffffffffffffffffffffffffffffffffff1673ffffffffffffffffffffffffffffffffffffffff1681526020019081526020016000208190555050505050505050565b600073ffffffffffffffffffffffffffffffffffffffff168273ffffffffffffffffffffffffffffffffffffffff160361386e5760006040517fec442f050000000000000000000000000000000000000000000000000000000081526004016138659190613fee565b60405180910390fd5b61387a60008383613a55565b5050565b600073ffffffffffffffffffffffffffffffffffffffff168473ffffffffffffffffffffffffffffffffffffffff16036138f05760006040517fe602df050000000000000000000000000000000000000000000000000000000081526004016138e79190613fee565b60405180910390fd5b600073ffffffffffffffffffffffffffffffffffffffff168373ffffffffffffffffffffffffffffffffffffffff16036139625760006040517f94280d620000000000000000000000000000000000000000000000000000000081526004016139599190613fee565b60405180910390fd5b81600160008673ffffffffffffffffffffffffffffffffffffffff1673ffffffffffffffffffffffffffffffffffffffff16815260200190815260200160002060008573ffffffffffffffffffffffffffffffffffffffff1673ffffffffffffffffffffffffffffffffffffffff168152602001908152602001600020819055508015613a4f578273ffffffffffffffffffffffffffffffffffffffff168473ffffffffffffffffffffffffffffffffffffffff167f8c5be1e5ebec7d5bd14f71427d1e84f3dd0314c0f7b2291e5b200ac8c7c3b92584604051613a469190613f97565b60405180910390a35b50505050565b600073ffffffffffffffffffffffffffffffffffffffff168373ffffffffffffffffffffffffffffffffffffffff1603613aa7578060026000828254613a9b91906155b8565b92505081905550613b7a565b60008060008573ffffffffffffffffffffffffffffffffffffffff1673ffffffffffffffffffffffffffffffffffffffff16815260200190815260200160002054905081811015613b33578381836040517fe450d38c000000000000000000000000000000000000000000000000000000008152600401613b2a93929190615cb3565b60405180910390fd5b8181036000808673ffffffffffffffffffffffffffffffffffffffff1673ffffffffffffffffffffffffffffffffffffffff16815260200190815260200160002081905550505b600073ffffffffffffffffffffffffffffffffffffffff168273ffffffffffffffffffffffffffffffffffffffff1603613bc35780600260008282540392505081905550613c10565b806000808473ffffffffffffffffffffffffffffffffffffffff1673ffffffffffffffffffffffffffffffffffffffff168152602001908152602001600020600082825401925050819055505b8173ffffffffffffffffffffffffffffffffffffffff168373ffffffffffffffffffffffffffffffffffffffff167fddf252ad1be2c89b69c2b068fc378daa952ba7f163c4a11628f55a4df523b3ef83604051613c6d9190613f97565b60405180910390a3505050565b828054828255906000526020600020908101928215613cf3579160200282015b82811115613cf25782518260006101000a81548173ffffffffffffffffffffffffffffffffffffffff021916908373ffffffffffffffffffffffffffffffffffffffff16021790555091602001919060010190613c9a565b5b509050613d009190613d04565b5090565b5b80821115613d1d576000816000905550600101613d05565b5090565b6000604051905090565b600080fd5b600080fd5b600073ffffffffffffffffffffffffffffffffffffffff82169050919050565b6000613d6082613d35565b9050919050565b613d7081613d55565b8114613d7b57600080fd5b50565b600081359050613d8d81613d67565b92915050565b6000819050919050565b613da681613d93565b8114613db157600080fd5b50565b600081359050613dc381613d9d565b92915050565b600080fd5b600080fd5b6000601f19601f8301169050919050565b7f4e487b7100000000000000000000000000000000000000000000000000000000600052604160045260246000fd5b613e1c82613dd3565b810181811067ffffffffffffffff82111715613e3b57613e3a613de4565b5b80604052505050565b6000613e4e613d21565b9050613e5a8282613e13565b919050565b600067ffffffffffffffff821115613e7a57613e79613de4565b5b613e8382613dd3565b9050602081019050919050565b82818337600083830152505050565b6000613eb2613ead84613e5f565b613e44565b905082815260208101848484011115613ece57613ecd613dce565b5b613ed9848285613e90565b509392505050565b600082601f830112613ef657613ef5613dc9565b5b8135613f06848260208601613e9f565b91505092915050565b600080600060608486031215613f2857613f27613d2b565b5b6000613f3686828701613d7e565b9350506020613f4786828701613db4565b925050604084013567ffffffffffffffff811115613f6857613f67613d30565b5b613f7486828701613ee1565b9150509250925092565b6000819050919050565b613f9181613f7e565b82525050565b6000602082019050613fac6000830184613f88565b92915050565b600060208284031215613fc857613fc7613d2b565b5b6000613fd684828501613d7e565b91505092915050565b613fe881613d55565b82525050565b60006020820190506140036000830184613fdf565b92915050565b600081519050919050565b600082825260208201905092915050565b60005b83811015614043578082015181840152602081019050614028565b60008484015250505050565b600061405a82614009565b6140648185614014565b9350614074818560208601614025565b61407d81613dd3565b840191505092915050565b600060208201905081810360008301526140a2818461404f565b905092915050565b6140b381613f7e565b81146140be57600080fd5b50565b6000813590506140d0816140aa565b92915050565b600080604083850312156140ed576140ec613d2b565b5b60006140fb85828601613d7e565b925050602061410c858286016140c1565b9150509250929050565b60008115159050919050565b61412b81614116565b82525050565b60006020820190506141466000830184614122565b92915050565b60008060006060848603121561416557614164613d2b565b5b600061417386828701613d7e565b935050602061418486828701613db4565b925050604061419586828701613d7e565b9150509250925092565b6141a881613d93565b82525050565b60006020820190506141c3600083018461419f565b92915050565b600060ff82169050919050565b6141df816141c9565b81146141ea57600080fd5b50565b6000813590506141fc816141d6565b92915050565b600080600080600080600060e0888a03121561422157614220613d2b565b5b600061422f8a828b01613d7e565b97505060206142408a828b016141ed565b96505060406142518a828b01613db4565b95505060606142628a828b01613db4565b94505060806142738a828b01613db4565b93505060a088013567ffffffffffffffff81111561429457614293613d30565b5b6142a08a828b01613ee1565b92505060c06142b18a828b016140c1565b91505092959891949750929550565b600080604083850312156142d7576142d6613d2b565b5b60006142e585828601613db4565b92505060206142f685828601613d7e565b9150509250929050565b60006020828403121561431657614315613d2b565b5b6000614324848285016140c1565b91505092915050565b60008060006060848603121561434657614345613d2b565b5b600061435486828701613d7e565b935050602061436586828701613d7e565b9250506040614376868287016140c1565b9150509250925092565b600080600080600060a0868803121561439c5761439b613d2b565b5b60006143aa88828901613d7e565b95505060206143bb888289016141ed565b94505060406143cc88828901613db4565b93505060606143dd88828901613db4565b92505060806143ee88828901613d7e565b9150509295509295909350565b614404816141c9565b82525050565b600060208201905061441f60008301846143fb565b92915050565b600067ffffffffffffffff8211156144405761443f613de4565b5b61444982613dd3565b9050602081019050919050565b600061446961446484614425565b613e44565b90508281526020810184848401111561448557614484613dce565b5b614490848285613e90565b509392505050565b600082601f8301126144ad576144ac613dc9565b5b81356144bd848260208601614456565b91505092915050565b600080604083850312156144dd576144dc613d2b565b5b60006144eb85828601613d7e565b925050602083013567ffffffffffffffff81111561450c5761450b613d30565b5b61451885828601614498565b9150509250929050565b6000806040838503121561453957614538613d2b565b5b600083013567ffffffffffffffff81111561455757614556613d30565b5b61456385828601614498565b925050602061457485828601613d7e565b9150509250929050565b6000806000806080858703121561459857614597613d2b565b5b60006145a687828801613d7e565b94505060206145b787828801613db4565b935050604085013567ffffffffffffffff8111156145d8576145d7613d30565b5b6145e487828801613ee1565b92505060606145f5878288016140c1565b91505092959194509250565b6000806040838503121561461857614617613d2b565b5b600061462685828601613db4565b9250506020614637858286016140c1565b9150509250929050565b60008060008060008060c0878903121561465e5761465d613d2b565b5b600061466c89828a01613d7e565b965050602061467d89828a016141ed565b955050604061468e89828a01613db4565b945050606061469f89828a01613db4565b93505060806146b089828a01613db4565b92505060a06146c189828a01613d7e565b9150509295509295509295565b600080600080600080600060e0888a0312156146ed576146ec613d2b565b5b60006146fb8a828b01613d7e565b975050602061470c8a828b016141ed565b965050604061471d8a828b01613db4565b955050606061472e8a828b01613db4565b945050608061473f8a828b01613db4565b93505060a06147508a828b01613d7e565b92505060c06147618a828b016140c1565b91505092959891949750929550565b6000806000806080858703121561478a57614789613d2b565b5b600061479887828801613d7e565b94505060206147a987828801613db4565b93505060406147ba87828801613d7e565b92505060606147cb878288016140c1565b91505092959194509250565b6000602082840312156147ed576147ec613d2b565b5b60006147fb84828501613db4565b91505092915050565b600060c082019050818103600083015261481e818961404f565b905061482d6020830188613fdf565b61483a6040830187613f88565b6148476060830186613f88565b6148546080830185614122565b61486160a0830184613f88565b979650505050505050565b600081519050919050565b600082825260208201905092915050565b6000819050602082019050919050565b6148a181613d55565b82525050565b60006148b38383614898565b60208301905092915050565b6000602082019050919050565b60006148d78261486c565b6148e18185614877565b93506148ec83614888565b8060005b8381101561491d57815161490488826148a7565b975061490f836148bf565b9250506001810190506148f0565b5085935050505092915050565b6000602082019050818103600083015261494481846148cc565b905092915050565b6000806040838503121561496357614962613d2b565b5b600061497185828601613d7e565b925050602061498285828601613d7e565b9150509250929050565b60008060008060008060c087890312156149a9576149a8613d2b565b5b60006149b789828a01613d7e565b96505060206149c889828a016141ed565b95505060406149d989828a01613db4565b94505060606149ea89828a01613db4565b93505060806149fb89828a01613db4565b92505060a087013567ffffffffffffffff811115614a1c57614a1b613d30565b5b614a2889828a01613ee1565b9150509295509295509295565b600060e0820190508181036000830152614a4f818a61404f565b9050614a5e6020830189613fdf565b614a6b6040830188613f88565b614a786060830187613f88565b614a856080830186613f88565b614a9260a0830185614122565b614a9f60c0830184613f88565b98975050505050505050565b7f4e487b7100000000000000000000000000000000000000000000000000000000600052602260045260246000fd5b60006002820490506001821680614af257607f821691505b602082108103614b0557614b04614aab565b5b50919050565b60007fff0000000000000000000000000000000000000000000000000000000000000082169050919050565b6000819050919050565b614b52614b4d82614b0b565b614b37565b82525050565b6000819050919050565b6000614b7d614b78614b7384613d35565b614b58565b613d35565b9050919050565b6000614b8f82614b62565b9050919050565b6000614ba182614b84565b9050919050565b60008160601b9050919050565b6000614bc082614ba8565b9050919050565b6000614bd282614bb5565b9050919050565b614bea614be582614b96565b614bc7565b82525050565b6000819050919050565b614c0b614c0682613f7e565b614bf0565b82525050565b614c22614c1d82613d55565b614bc7565b82525050565b600081905092915050565b7f7365744174747269627574650000000000000000000000000000000000000000600082015250565b6000614c69600c83614c28565b9150614c7482614c33565b600c82019050919050565b6000819050919050565b614c9a614c9582613d93565b614c7f565b82525050565b600081519050919050565b600081905092915050565b6000614cc182614ca0565b614ccb8185614cab565b9350614cdb818560208601614025565b80840191505092915050565b6000614cf3828b614b41565b600182019150614d03828a614b41565b600182019150614d138289614bd9565b601482019150614d238288614bfa565b602082019150614d338287614c11565b601482019150614d4282614c5c565b9150614d4e8286614c89565b602082019150614d5e8285614cb6565b9150614d6a8284614bfa565b6020820191508190509998505050505050505050565b7f6f6e6c795f6f72675f61646d696e000000000000000000000000000000000000600082015250565b6000614db6600e83614014565b9150614dc182614d80565b602082019050919050565b60006020820190508181036000830152614de581614da9565b9050919050565b7f6f72675f6e6f745f616374697665000000000000000000000000000000000000600082015250565b6000614e22600e83614014565b9150614e2d82614dec565b602082019050919050565b60006020820190508181036000830152614e5181614e15565b9050919050565b7f757365725f6e6f745f696e5f6f72670000000000000000000000000000000000600082015250565b6000614e8e600f83614014565b9150614e9982614e58565b602082019050919050565b60006020820190508181036000830152614ebd81614e81565b9050919050565b7f4e487b7100000000000000000000000000000000000000000000000000000000600052603260045260246000fd5b7f4e487b7100000000000000000000000000000000000000000000000000000000600052601160045260246000fd5b6000614f2d82613f7e565b9150614f3883613f7e565b9250828203905081811115614f5057614f4f614ef3565b5b92915050565b7f4e487b7100000000000000000000000000000000000000000000000000000000600052603160045260246000fd5b7f696e6465785f6f75745f6f665f626f756e647300000000000000000000000000600082015250565b6000614fbb601383614014565b9150614fc682614f85565b602082019050919050565b60006020820190508181036000830152614fea81614fae565b9050919050565b7f6368616e67654f776e6572000000000000000000000000000000000000000000600082015250565b6000615027600b83614c28565b915061503282614ff1565b600b82019050919050565b60006150498289614b41565b6001820191506150598288614b41565b6001820191506150698287614bd9565b6014820191506150798286614bfa565b6020820191506150898285614c11565b6014820191506150988261501a565b91506150a48284614c11565b601482019150819050979650505050505050565b7f6261645f6163746f720000000000000000000000000000000000000000000000600082015250565b60006150ee600983614014565b91506150f9826150b8565b602082019050919050565b6000602082019050818103600083015261511d816150e1565b9050919050565b60008190508160005260206000209050919050565b60006020601f8301049050919050565b600082821b905092915050565b6000600883026151867fffffffffffffffffffffffffffffffffffffffffffffffffffffffffffffffff82615149565b6151908683615149565b95508019841693508086168417925050509392505050565b60006151c36151be6151b984613f7e565b614b58565b613f7e565b9050919050565b6000819050919050565b6151dd836151a8565b6151f16151e9826151ca565b848454615156565b825550505050565b600090565b6152066151f9565b6152118184846151d4565b505050565b5b818110156152355761522a6000826151fe565b600181019050615217565b5050565b601f82111561527a5761524b81615124565b61525484615139565b81016020851015615263578190505b61527761526f85615139565b830182615216565b50505b505050565b600082821c905092915050565b600061529d6000198460080261527f565b1980831691505092915050565b60006152b6838361528c565b9150826002028217905092915050565b6152cf82614009565b67ffffffffffffffff8111156152e8576152e7613de4565b5b6152f28254614ada565b6152fd828285615239565b600060209050601f831160018114615330576000841561531e578287015190505b61532885826152aa565b865550615390565b601f19841661533e86615124565b60005b8281101561536657848901518255600182019150602085019450602081019050615341565b86831015615383578489015161537f601f89168261528c565b8355505b6001600288020188555050505b505050505050565b60006153a382614009565b6153ad8185614c28565b93506153bd818560208601614025565b80840191505092915050565b60006153d58286615398565b91506153e18285614c11565b6014820191506153f18284614bfa565b602082019150819050949350505050565b7f6f72675f616c72656164795f6578697374730000000000000000000000000000600082015250565b6000615438601283614014565b915061544382615402565b602082019050919050565b600060208201905081810360008301526154678161542b565b9050919050565b60006040820190508181036000830152615488818561404f565b90506154976020830184613f88565b9392505050565b7f757365725f616c72656164795f696e5f6f726700000000000000000000000000600082015250565b60006154d4601383614014565b91506154df8261549e565b602082019050919050565b60006020820190508181036000830152615503816154c7565b9050919050565b7f696e73756666696369656e745f746f6b656e7300000000000000000000000000600082015250565b6000615540601383614014565b915061554b8261550a565b602082019050919050565b6000602082019050818103600083015261556f81615533565b9050919050565b600061558182613f7e565b915061558c83613f7e565b925082820261559a81613f7e565b915082820484148315176155b1576155b0614ef3565b5b5092915050565b60006155c382613f7e565b91506155ce83613f7e565b92508282019050808211156155e6576155e5614ef3565b5b92915050565b7f7265766f6b6544656c6567617465000000000000000000000000000000000000600082015250565b6000615622600e83614c28565b915061562d826155ec565b600e82019050919050565b6000615644828a614b41565b6001820191506156548289614b41565b6001820191506156648288614bd9565b6014820191506156748287614bfa565b6020820191506156848286614c11565b60148201915061569382615615565b915061569f8285614c89565b6020820191506156af8284614c11565b60148201915081905098975050505050505050565b7f61646444656c6567617465000000000000000000000000000000000000000000600082015250565b60006156fa600b83614c28565b9150615705826156c4565b600b82019050919050565b600061571c828b614b41565b60018201915061572c828a614b41565b60018201915061573c8289614bd9565b60148201915061574c8288614bfa565b60208201915061575c8287614c11565b60148201915061576b826156ed565b91506157778286614c89565b6020820191506157878285614c11565b6014820191506157978284614bfa565b6020820191508190509998505050505050505050565b7f757365725f6e6f745f696e5f6f7267616e697a6174696f6e0000000000000000600082015250565b60006157e3601883614014565b91506157ee826157ad565b602082019050919050565b60006020820190508181036000830152615812816157d6565b9050919050565b7f757365725f616c72656164795f6861735f646964000000000000000000000000600082015250565b600061584f601483614014565b915061585a82615819565b602082019050919050565b6000602082019050818103600083015261587e81615842565b9050919050565b7f6f7267616e697a6174696f6e5f6e6f745f616374697665000000000000000000600082015250565b60006158bb601783614014565b91506158c682615885565b602082019050919050565b600060208201905081810360008301526158ea816158ae565b9050919050565b7f696e73756666696369656e745f63726564697473000000000000000000000000600082015250565b6000615927601483614014565b9150615932826158f1565b602082019050919050565b600060208201905081810360008301526159568161591a565b9050919050565b7f6f72675f6e6f745f657869737473000000000000000000000000000000000000600082015250565b6000615993600e83614014565b915061599e8261595d565b602082019050919050565b600060208201905081810360008301526159c281615986565b9050919050565b7f7265766f6b654174747269627574650000000000000000000000000000000000600082015250565b60006159ff600f83614c28565b9150615a0a826159c9565b600f82019050919050565b6000615a21828a614b41565b600182019150615a318289614b41565b600182019150615a418288614bd9565b601482019150615a518287614bfa565b602082019150615a618286614c11565b601482019150615a70826159f2565b9150615a7c8285614c89565b602082019150615a8c8284614cb6565b915081905098975050505050505050565b600082825260208201905092915050565b6000615ab982614ca0565b615ac38185615a9d565b9350615ad3818560208601614025565b615adc81613dd3565b840191505092915050565b6000819050919050565b6000615b0c615b07615b0284615ae7565b614b58565b613f7e565b9050919050565b615b1c81615af1565b82525050565b6000608082019050615b37600083018761419f565b8181036020830152615b498186615aae565b9050615b586040830185615b13565b615b656060830184613f88565b95945050505050565b6000608082019050615b83600083018761419f565b615b9060208301866143fb565b615b9d604083018561419f565b615baa606083018461419f565b95945050505050565b7f6261645f7369676e617475726500000000000000000000000000000000000000600082015250565b6000615be9600d83614014565b9150615bf482615bb3565b602082019050919050565b60006020820190508181036000830152615c1881615bdc565b9050919050565b6000615c2a82613f7e565b91507fffffffffffffffffffffffffffffffffffffffffffffffffffffffffffffffff8203615c5c57615c5b614ef3565b5b600182019050919050565b6000608082019050615c7c600083018761419f565b8181036020830152615c8e8186615aae565b9050615c9d6040830185613f88565b615caa6060830184613f88565b95945050505050565b6000606082019050615cc86000830186613fdf565b615cd56020830185613f88565b615ce26040830184613f88565b949350505050565b6000604082019050615cff6000830185613fdf565b615d0c6020830184613f88565b9392505050565b6000608082019050615d28600083018761419f565b615d356020830186613fdf565b615d426040830185613f88565b615d4f6060830184613f88565b9594505050505056fea26469706673582212208ed52309120198c1365ad67542b6134f0b6b1616a833ce7d58ce74bc7a8a13a964736f6c634300081b0033",
    "linkReferences": {},
    "deployedLinkReferences": {}
}